:060000000A128A110C280F
:10000800FE00030EF4000A08F5000A128A111728E8
:100018000A128A110F28F001F101F201F30183019C
:100028000A128A1160280B1E1A281B282F288B1CDD
:100038001E281F282F288B10031083120313861CD9
:100048000314031828282C288312031386142F2836
:100058008312031386108B1E3228332842280B1D67
:1000680036283728422806308312031381000130CE
:10007800F2070318F30A0030F3070B118316031372
:100088000C1C472848285928831203130C1C4D2898
:100098004E285928FC308F0018308E000130F007A8
:1000A8000318F10A0030F1070C1075088A00740E65
:1000B8008300FE0E7E0E09008B130A128A119F2000
:1000C8000A128A118B1788307206133003197306C7
:1000D800031D6F2870288128031083120313061F3D
:1000E8000314031878287C288312031306177F2823
:1000F800831203130613F201F301883070061330DC
:1001080003197106031D89288A286728031083129A
:100118000313861F031403189228962883120313C7
:1001280086179928831203138613F001F1016728B3
:100138000A128A110C28831203138501860187018C
:10014800831603138801831203138901831603138B
:100158008501013086008701831203138801831605
:10016800031389018130810070308B0006308312BF
:1001780003138100F201F30101309000FC308F007D
:1001880018308E00F001F101831603130C140730A8
:040198009C000800BF
:02400E00F23F7F
:00000001FF
