:060000000A128A110C280F
:10000800FE00030EF0000A08F1000A128A15D8292A
:100018000A128A110F288313F030FD000930FE0000
:100028002A30FF00DC3084000A128A151B210A12CC
:100038008A117030FD001730FE009230FF006430E6
:1000480084000A128A151B210A128A11831790301C
:1000580084009A300A168A115E270A128A118313BD
:10006800A0308400DC300A168A115E270A128A1131
:100078004E30840064300A168A115E270A128A11EB
:10008800FA01FB0183010A128A15222BF8010130BB
:100098000A128A15E3230A128A111C3083120313E9
:1000A800A6008730A7000A128A15BC260A128A11F0
:1000B800033083120313B6003608F80002300A1220
:1000C8008A15E3230A128A112A3083120313A60021
:1000D8008830A7000A128A15BC260A128A114D30E8
:1000E80083120313B8001930B7004F30B600B60BAF
:1000F8007B28B70B7B28B80B7B280A168A11862722
:100108000A128A1144308400E63083120313B600C1
:100118000408B7000A30B8003608840083130008C2
:10012800B900B60A3708840039088000B70AB80B46
:1001380090283A308400DC30B6000408B7000A3052
:10014800B8003608840083130008B900B60A3708D7
:10015800840039088000B70AB80BA5283A30B600E1
:100168003608F20044300A128A15F9220A128A1156
:10017800F80101300A128A15E3230A128A11933012
:1001880083120313A6008830A7000A128A15BC261A
:100198000A128A11F80102300A128A15E3230A1298
:1001A8008A11273083120313A6008830A700443031
:1001B800B6003608A8000A128A15BC260A128A1147
:1001C8004D3083120313B8001930B7004F30B60012
:1001D800B60BEC28B70BEC28B80BEC280A168A11DA
:1001E80086270A128A11F80101300A128A15E323B8
:1001F8000A128A118C3083120313A6008830A700D4
:100208000A128A15BC260A128A11F80102300A124B
:100218008A15E3230A128A11273083120313A600D2
:100228008830A7006430F2000030F30044300A122E
:100238008A153E210A128A1183120313B600360862
:10024800A8000A128A15BC260A128A114D30831298
:100258000313B8001930B7004F30B600B60B322977
:10026800B70B3229B80B32290A168A1186270A12C7
:100278008A11F80101300A128A15E3230A128A1139
:10028800853083120313A6008830A7000A128A1546
:10029800BC260A128A11F80102300A128A15E323D1
:1002A8000A128A11273083120313A6008830A70088
:1002B8006530F2000030F3000630F4000030F5003D
:1002C80044300A128A1537220A128A11831203133C
:1002D800B6003608A8000A128A15BC260A128A1126
:1002E8004D3083120313B8001930B7004F30B600F1
:1002F800B60B7C29B70B7C29B80B7C290A168A1106
:1003080086270A128A11F80101300A128A15E32396
:100318000A128A11703083120313A6008830A700CE
:100328000A128A15BC260A128A11F80102300A122A
:100338008A15E3230A128A11353083120313A600A3
:100348008830A70044300A128A156D210A128A11D2
:10035800730883120313A9007208A8000A128A15E9
:10036800BC260A128A114D3083120313B8001930C3
:10037800B7004F30B600B60BBF29B70BBF29B80B73
:10038800BF290A168A1186270A128A11F801013034
:100398000A128A15E3230A128A117E308312031384
:1003A800A6008830A7000A128A15BC260A128A11EC
:1003B800F80102300A128A15E3230A128A113D3025
:1003C80083120313A6008830A700B530F2008830E6
:1003D800F30044300A128A1576230A128A11730828
:1003E80083120313A9007208A8000A128A15BC26F2
:1003F8000A128A114D3083120313B8001930B7005E
:100408004F30B600B60B062AB70B062AB80B062AD9
:100418000A168A1186270A128A11F80101300A126F
:100428008A15E3230A128A11773083120313A60070
:100438008830A7000A128A15BC260A128A11F80108
:1004480002300A128A15E3230A128A113D308312F8
:100458000313A6008830A700BA30F2008830F300F2
:100468000530F4000030F50044300A128A1556258C
:100478000A128A11730883120313A9007208A800CC
:100488000A128A15BC260A128A114D3083120313E8
:10049800B8001930B7004F30B600B60B512AB70B69
:1004A800512AB80B512A0A168A1186270A128A116C
:1004B800F80101300A128A15E3230A128A11A830BA
:1004C80083120313A6008830A7000A128A15BC26D7
:1004D8000A128A11F80102300A128A15E3230A1255
:1004E8008A11273083120313A6008830A700AF3083
:1004F800F2008830F30044300A128A15D1220A1219
:100508008A1183120313B6003608A8000A128A1546
:10051800BC260A128A114D3083120313B800193011
:10052800B7004F30B600B60B972AB70B972AB80B0F
:10053800972A0A168A1186270A128A11F8010130A9
:100548000A128A15E3230A128A11A13083120313AF
:10055800A6008830A7000A128A15BC260A128A113A
:10056800F80102300A128A15E3230A128A11273089
:1005780083120313A6008830A700AF30F20088303A
:10058800F3000530F4000030F50044300A128A15F3
:10059800AA230A128A1183120313B6003608A80088
:1005A8000A128A15BC260A128A114D3083120313C7
:1005B800B8001930B7004F30B600B60BE12AB70BB8
:1005C800E12AB80BE12A0A168A1186270A128A112B
:1005D800F80101300A128A15E3230A128A115330EE
:1005E80083120313A6008830A7000A128A15BC26B6
:1005F8000A128A11F80102300A128A15E3230A1234
:100608008A11273083120313A6008830A7006230AE
:10061800F2008830F3000630F4000030F500443072
:100628000A128A1143260A128A1183120313B6008A
:100638003608A8000A128A15BC260A128A114D30FB
:1006480083120313B8001930B7004F30B600B60B49
:100658002B2BB70B2B2BB80B2B2B0A168A118627A3
:100668000A128A11F80101300A128A15E3230A12C4
:100678008A119A3083120313A6008830A7000A1241
:100688008A15BC260A128A11F80102300A128A1544
:10069800E3230A128A11273083120313A600883035
:1006A800A7006130F2000030F3000530F40000309C
:1006B800F50044300A128A1516220A128A1183128A
:1006C8000313B6003608A8000A128A15BC260A12B7
:1006D8008A114D3083120313B8001930B7004F3018
:1006E800B600B60B752BB70B752BB80B752B0A1606
:1006F8008A1186270A128A110800F80101300A12A5
:100708008A15E3230A128A111C3083120313A600E8
:100718008730A7000A128A15BC260A128A110330EC
:1007280083120313B6003608F80002300A128A153D
:10073800E3230A128A11403083120313A60088307B
:10074800A7000A128A15BC260A128A114D30831294
:100758000313B8001930B7004F30B600B60BB22BF0
:10076800B70BB22BB80BB22B0A168A1186270A12BE
:100778008A11F80101300A128A15E3230A128A1134
:10078800883083120313A6008730A70074300A1636
:100798008A11EE270A128A110030031801308312D9
:1007A8000313B600B7013608A8003708A9000A12D3
:1007B8008A15BC260A128A11F80102300A128A1513
:1007C800E3230A128A11E23083120313A60087304A
:1007D800A7002E300A128A11CB260A128A1100307D
:1007E8000318013083120313B600B7013608A800B6
:1007F8003708A9000A128A15BC260A128A114D3038
:1008080083120313B8001930B7004F30B600B60B87
:100818000B2CB70B0B2CB80B0B2C0A168A1186273E
:100828000A128A11F80101300A128A15E3230A1202
:100838008A11793083120313A6008730A70020306D
:100848000A128A1555210A128A110030031801303C
:1008580083120313B600B7013608A8003708A900A9
:100868000A128A15BC260A128A11F80102300A12E5
:100878008A15E3230A128A11C43083120313A600CF
:100888008730A70074300A168A11DC270A128A11E9
:1008980000300318013083120313B600B70136087D
:1008A800A8003708A9000A128A15BC260A128A115C
:1008B8004D3083120313B8001930B7004F30B6001B
:1008C800B60B642CB70B642CB80B642C0A168A116F
:1008D80086270A128A11F80101300A128A15E323C1
:1008E8000A128A112D3083120313A6008730A7003D
:1008F80034300A128A15A9220A128A110030031804
:10090800013083120313B600B7013608A800370870
:10091800A9000A128A15BC260A128A11F8010230A7
:100928000A128A15E3230A128A11A63083120313C6
:10093800A6008730A70009300A168A1170270A1204
:100948008A1100300318013083120313B600B7016F
:100958003608A8003708A9000A128A15BC260A1208
:100968008A114D3083120313B8001930B7004F3085
:10097800B600B60BBD2CB70BBD2CB80BBD2C0A1698
:100988008A1186270A128A11F80101300A128A157B
:10099800E3230A128A11F13083120313A600873069
:1009A800A70033300A128A15A9220A128A110030C8
:1009B8000318013083120313B600B7013608A800E4
:1009C8003708A9000A128A15BC260A128A11F801EA
:1009D80002300A128A15E3230A128A11D3308312CD
:1009E8000313A6008730A70043300A128A15CE20C9
:1009F8000A128A1100300318013083120313B6005B
:100A0800B7013608A8003708A9000A128A15BC26BB
:100A18000A128A114D3083120313B8001930B70037
:100A28004F30B600B60B162DB70B162DB80B162D7A
:100A38000A168A1186270A128A11F80101300A1249
:100A48008A15E3230A128A11003083120313A600C1
:100A58008830A70033300A128A15E0200A128A115A
:100A680000300318013083120313B600B7013608AB
:100A7800A8003708A9000A128A15BC260A128A118A
:100A8800F80102300A128A15E3230A128A11B530D6
:100A980083120313A6008730A7002A300A128A158A
:100AA800BC210A128A110030031801308312031383
:100AB800B600B7013608A8003708A9000A128A1537
:100AC800BC260A128A114D3083120313B80019305C
:100AD800B7004F30B600B60B6F2DB70B6F2DB80BA4
:100AE8006F2D0A168A1186270A128A11F801013019
:100AF8000A128A15E3230A128A116A308312031331
:100B0800A6008730A70033300A128A15A0210A12DE
:100B18008A1100300318013083120313B600B7019D
:100B28003608A8003708A9000A128A15BC260A1236
:100B38008A11F80102300A128A15E3230A128A116F
:100B4800973083120313A6008730A7000130A8004E
:100B58000030A9000A128A15BC260A128A114D30E3
:100B680083120313B8001930B7004F30B600B60B24
:100B7800BB2DB70BBB2DB80BBB2D0A168A118627C8
:100B88000A128A11F80101300A128A15E3230A129F
:100B98008A115B3083120313A6008730A700413007
:100BA8000A168A11CC270A128A1183120313B60077
:100BB800B7013608A8003708A9000A128A15BC260A
:100BC8000A128A11F80102300A128A15E3230A125E
:100BD8008A114C3083120313A6008730A7006130B6
:100BE8000A128A1504210A128A1183120313B60005
:100BF800B7013608A8003708A9000A128A15BC26CA
:100C08000A128A114D3083120313B8001930B70045
:100C18004F30B600B60B0E2EB70B0E2EB80B0E2E9D
:100C28000A168A1186270A128A11F80101300A1257
:100C38008A15E3230A128A110F3083120313A600C0
:100C48008830A7006130A8000030A9000A128A1570
:100C5800BC260A128A114D3083120313B8001930CA
:100C6800B7004F30B600B60B372EB70B372EB80B80
:100C7800372E0A168A1186270A128A11080083124B
:100C88000313A0007208A1007308A2002008F60050
:100C98007608A3002308F6000030F7007708220240
:100CA800031D582E7608210203185B2E5C2E9E2EFB
:100CB80074082107F60075080318750A2207F7005B
:100CC8002308F8000030F90077087902031D6E2E1A
:100CD800760878020318712E722E9E2E7408A107CA
:100CE8000318A20A7408F6007608A3070130A102C7
:100CF8000030031CA203A2022208FF00210884007E
:100D08000A128A1100270A128A11F6000130A3027A
:100D1800230884007608831380000130F402003031
:100D2800031CF503F50274087504031D9C2E9D2E03
:100D38007A2EC92E740875040319A32EA42EC92E61
:100D48002208FF00210884000A128A1100270A12CB
:100D58008A11F60023088400760883138000013086
:100D6800A1070318A20A0030A2070130F60076088E
:100D7800A3070130F4020030031CF503F5027408E0
:100D88007504031DC82EC92EA42E20080800F200E1
:100D980021307202031CD12ED22ED82E303072028E
:100DA800031CD72ED82EFC2E3A307202031CDD2EDF
:100DB800DE2EE42E41307202031CE32EE42EFC2EBC
:100DC8005B307202031CE92EEA2EF02E61307202AB
:100DD800031CEF2EF02EFC2E7B307202031CF52E26
:100DE800F62EFE2E7F3072020318FB2EFC2EFE2EEE
:100DF8000314FF2E03100800FF1B0A2F83137F180C
:100E080083170008840A0319FF0A08007F087F393E
:100E18008A000408840A0319FF0A82000134003496
:100E28000A34003464340034E8340334103427348A
:100E380058344334383420344C34493442345334ED
:100E48002034543445345334543449344E344734BC
:100E580000346934733478346434693467346934F9
:100E680074342834633429343F34203425346434CA
:100E7800003441342F344434203443344F344E3416
:100E8800563445345234533449344F344E34003494
:100E98006134203474346F342034753470347034D1
:100EA800653472343A3420342534633400344134A0
:100EB800203474346F3420346C346F3477346534B0
:100EC80072343A342034253463340034693473344A
:100ED80061346C34703468346134283463342934B0
:100EE8003F34203425346434003469347334733423
:100EF80070346134633465342834633429343F34BE
:100F080020342534643400346934733467347234DB
:100F18006134703468342834633429343F342034DD
:100F2800253464340034693473346134733463347D
:100F3800693469342834633429343F3420342534FF
:100F4800643400346934733463346E347434723402
:100F58006C342834633429343F34203425346434E1
:100F680000346934733461346C346E3475346D34E0
:100F78002834633429343F3420342534643400342D
:100F88006934733475347034703465347234283489
:100F9800633429343F3420342534643400346934CC
:100FA80073346C346F347734653472342834633472
:100FB80029343F342034253464340034693473349C
:100FC800703475346E34633474342834633429349B
:100FD8003F34203425346434003469347334643441
:100FE80069346734693474342834633429343F34B9
:100FF80020342534643400346934733470347234E2
:1010080069346E3474342834633429343F342034DA
:101018002534643400346134203474346F3420341B
:101028006134733463346934693420342534643466
:101038000034413444342034763461346C347534AB
:1010480065343A34203425347334003453345434FA
:10105800523449344E34473420344C3449344234C1
:1010680000346C3465346E346734743468343A341C
:1010780020342534643400344334543459345034DF
:10108800453420344C344934423400344D344134EE
:101098005434483420344C344934423400346D34A8
:1010A80065346D346D346F347634653400342834E7
:1010B8006E3475346C346C342934003474346534CB
:1010C800733474346534323400345334543444340F
:1010D8004C344934423400347334743472346C34CC
:1010E80065346E3400346D3465346D3463346D3476
:1010F8007034003473347434723463346D3470343F
:1011080000346D3465346D346334683472340034BB
:10111800733474347234633468347234003473341E
:101128007434723463346134743400346D34653427
:101138006D3473346534743400346D3465346D340F
:1011480063347034793400347334743472346334EF
:1011580070347934003474346534733474346534D9
:10116800003461346234633464340034613462348A
:1011780000348312031389140A168A1146270A12A7
:101188008A158312031389100A168A1146270A1230
:101198008A150800F300F2017B3073020318D52882
:1011A800D628DE2861307302031CDB28DC28DE2801
:1011B800F201F20A720C0800F300F2017F307302A8
:1011C8000318E728E828F02820307302031CED28CC
:1011D800EE28F028F201F20A720C0800F300F2017E
:1011E8003A3073020318F928FA28022930307302BA
:1011F800031CFF2800290229F201F20A720C0800D8
:10120800F3007B30730203180A290B291529613072
:101218007302031C102911291529DF30F200720806
:10122800F305730808007E088A007F0882000A1206
:101238008A1517210A128A158000840A04087D0677
:1012480003190034FF0A0319FE0A1B2964346534A4
:101258006634003400340034003400340034003480
:1012680061346234633400340034003400340034B0
:1012780000340034F40074088400831300087206F4
:10128800031D472948294A297408542974088400E9
:101298000130F4070008031D522953293F29003063
:1012A8000800F300F201F20A2030730603195D29E1
:1012B8005E296B290E3073020318632964296A2991
:1012C80009307302031869296A296B29F201720C23
:1012D8000800F5007508F4007408F6007729013055
:1012E800F4007408F6077608840083130008031DC9
:1012F8007E297F29732975087602F200F301F21B13
:10130800F3030800F300A630F200F20B892900006D
:10131800831203131F151F19922993298F29730804
:101328008400831603131E0883138000840A831223
:1013380003131E0880000800F500F401F40A7B304E
:1013480075020318A829A929AF2961307502031865
:10135800AE29AF29BA2975080A168A11DC270A129C
:101368008A150318B829B929BA29F401740C080098
:10137800F700F601F60A3A3077020318C429C5299E
:10138800CB29303077020318CA29CB29D629770808
:101398000A128A15A0210A128A150318D429D529F8
:1013A800D629F601760C08000B1EDB29DC29F0296A
:1013B8008B1CDF29E029F0298B10031083120313FB
:1013C800861C03140318E929ED29831203138614D4
:1013D800F02983120313861071088A00700E8300A7
:1013E800FE0E7E0E0900F5007508F30004300310A8
:1013F800F30CFF3E031DFB297308F4007408F60084
:1014080076080A128A154B230A128A1575080F39AD
:10141800F3007308F60076080A128A154B230A129D
:101428008A150800F8007808F6007608F700272AD9
:101438007208F6007708840076088313800001306C
:10144800F6007608F7070130F4020030031CF503B4
:10145800F502740A031D342A750A031D342A352A35
:101468001C2A78080800F7007708F6007608F800C4
:101478004C2A78088400831300087206031D452A45
:10148800462A482A78085B2A0130F6007608F807C9
:101498000130F4020030031CF503F502740A031D41
:1014A800592A750A031D592A5A2A3D2A003008006C
:1014B80083120313B400B01F622A632A732A2D30E3
:1014C800B300340884003308831380000130B3006C
:1014D8003308B407AF09B009AF0A0319B00A3008D6
:1014E800A7002F08A6003208A9003108A800340870
:1014F8000A128A154A260A128A150800831203134B
:10150800850186018701831603138801831203135B
:101518008901013083160313850001308600870195
:101528008312031388018316031389018130810014
:1015380010308B0007309C008130831203139F000A
:101548008E30831603139F000800F500F401F40A97
:10155800673075020318B12AB22AB82A61307502B9
:101568000318B72AB82ACF2A473075020318BD2AAC
:10157800BE2AC42A413075020318C32AC42ACF2AB6
:1015880075080A128A15F2200A128A150318CD2A3C
:10159800CE2ACF2AF401740C0800F6007608F4006D
:1015A8007408F500E12A0130F4007408F5070130E9
:1015B800F2070318F30A0030F307730883120313C2
:1015C800FF00720884000A128A1100270A128A157D
:1015D800F400750884007408831380000008031D54
:1015E800F62AF72AD72A76080800F4007408F300C8
:1015F8007308F500032B0130F3007308F50775082D
:10160800840083130008031D0A2B0B2BFF2A142BBD
:101618000130F3007308F5070130F3007308F2078F
:10162800720884000008F3007508840073088000BD
:101638000008031D202B212B0C2B08008B130A12EA
:101648008A1582220A128A158B170A168A115027C0
:101658000A128A150A128A15E7250A128A150A1229
:101668008A1597240A128A150A128A155A240A1208
:101678008A150A128A1181230A128A150A128A11F6
:101688004A200A128A152E2B0A128A110C28F200F7
:10169800721C4F2B502B552B83120313D901D90AD7
:1016A800582B83120313D901F21C5B2B5C2B5F2B85
:1016B800D801D80A602BD801721D632B642B672BC5
:1016C800D701D70A682BD701F21D6B2B6C2B6F2B18
:1016D800D601D60A702BD6010A128A15BD200A1225
:1016E8008A150800F800822B0130F4007408F80706
:1016F8000130F2070318F30A0030F3077308831266
:101708000313FF00720884000A128A1100270A12C4
:101718008A15F4007808840083130008F50074081B
:101728007502F6007608F7007708031D9C2B9D2BA1
:10173800A42B780884000008031DA32BA42B782B66
:101748007708F200F301F21BF30308008312031376
:10175800A4007208A1007308A2002408F600760805
:10176800A300D32B2208FF00210884000A128A1143
:1017780000270A128A15F6007608A0000130A10792
:101788000318A20A0030A2072008F60023088400E4
:101798007608831380000130F6007608A30701302D
:1017A800F4020030031CF503F502740A031DE02B54
:1017B800750A031DE02BE12BB62B24080800F9005D
:1017C800052C7808803E0A168A11AC270A128A1559
:1017D8001D2C7808C03E0A168A11AC270A128A15F1
:1017E8001D2C7808903E0A168A11AC270A128A1511
:1017F8001D2C7808D03E0A168A11AC270A128A15C1
:101808001D2C790883120313A000A1012108003AB6
:1018180003190F2C1D2C2008013A0319E52B033A54
:101828000319ED2B013A0319F52B073A0319FD2B80
:101838001D2C080083120313200821040319252CEA
:10184800262C552CA501A50A342C01300310A00D17
:10185800A10DFF3E031D2A2C0130A4002408A50772
:10186800A11F372C382C292C21082302031D3E2CBC
:1018780020082202031C412C422C482C2008A202DA
:101888002108031CA303A30201300310A10CA00C20
:10189800FF3E031D492C0130A502031D542C552C75
:1018A800382C2308A1002208A0000800F801013004
:1018B8000A128A15E3230A128A151C3083120313AD
:1018C800A6008730A7000A128A15BC260A128A15B4
:1018D800043083120313B6003608F80002300A12E7
:1018E8008A15E3230A128A154A3083120313A600C5
:1018F8008830A7000A128A15BC260A128A154D30AC
:1019080083120313B8001930B7004F30B600B60B76
:101918008B2CB70B8B2CB80B8B2C0A168A118627AD
:101928000A128A150800F80101300A128A15E32301
:101938000A128A151C3083120313A6008730A700E9
:101948000A128A15BC260A128A1505308312031357
:10195800B6003608F80002300A128A15E3230A1284
:101968008A15693083120313A6008830A7000A126B
:101978008A15BC260A128A154D3083120313B80043
:101988001930B7004F30B600B60BC82CB70BC82CAF
:10199800B80BC82C0A168A1186270A128A1508005D
:1019A8000A168A119E270A128A1530300A168A11D9
:1019B800AC270A128A150A168A1166270A128A158E
:1019C80030300A168A11AC270A128A150A168A11AB
:1019D80066270A128A1530300A168A11AC270A12AD
:1019E8008A150A168A1166270A128A1538300A16C5
:1019F8008A11AC270A128A1506300A168A11AC27F2
:101A08000A128A150E300A168A11AC270A128A158C
:101A18000A168A1186270A128A150800F701F801A2
:101A2800720873040319192D1A2D512DF901F90A99
:101A3800282D01300310F20DF30DFF3E031D1E2D5E
:101A48000130F6007608F907F31F2B2D2C2D1D2DDC
:101A580001300310F70DF80DFF3E031D2D2D7308FF
:101A68007502031D392D72087402031C3C2D3D2D8F
:101A7800442D7208F4027308031CF503F502771469
:101A880001300310F30CF20CFF3E031D452D01300D
:101A9800F902031D502D512D2C2D7808F3007708DD
:101AA800F2000800F8008D2D730883120313FF005D
:101AB800720884000A128A1100270A128A15F60091
:101AC8007808840083130008760603196C2D6D2DA1
:101AD800832D7308FF00720884000A128A110027F8
:101AE8000A128A15F6007808840083130008F700A4
:101AF80076087702F200F301031CF3039D2D0130F1
:101B0800F6007608F8070130F2070318F30A0030E8
:101B1800F3070130F4020030031CF503F502740AE0
:101B2800031D9A2D750A031D9A2D9B2D582DF20120
:101B3800F30108000A168A119E270A128A15033033
:101B48000A128A154B230A128A150A168A11662761
:101B58000A128A1503300A128A154B230A128A15AB
:101B68000A168A1166270A128A1503300A128A157C
:101B78004B230A128A150A168A1166270A128A1531
:101B880002300A128A154B230A128A150A168A117C
:101B980066270A128A1528300A168A11AC270A12F3
:101BA8008A1506300A168A11AC270A128A150E30D1
:101BB8000A168A11AC270A128A150A168A1186276C
:101BC8000A128A15080062300A128A1586210A123A
:101BD8008A15831203136308B7006208B60003105E
:101BE800B70CB60C3608E2003708E3006308B0000B
:101BF8006208AF000A30B1000030B2005D300A124E
:101C08008A155C220A128A15F801F80A01300A12AC
:101C18008A15E3230A128A153D3083120313A6009E
:101C28008730A7000A128A15BC260A128A150230C4
:101C380083120313B6003608F80002300A128A1518
:101C4800E3230A128A151D3083120313A600883075
:101C5800A7005D30B6003608A8000A128A15BC260F
:101C68000A128A154D3083120313B8001930B700D1
:101C78004F30B600B60B3E2EB70B3E2EB80B3E2E9D
:101C88000A168A1186270A128A1508008312031376
:101C9800AE002708AC002608AB002908F300280886
:101CA800F2002C08F5002B08F4000A128A151225F8
:101CB8000A128A15730883120313AC007208AB006A
:101CC8000130AA002A08AE072B082C04031D6D2E2C
:101CD8006E2E512E2E088400831380010130AE022F
:101CE8002908A1002808A0002708A3002608A200A8
:101CF8000A128A151E240A128A1583120313200851
:101D0800AA002A08AD002908F3002808F2002708CD
:101D1800F5002608F4000A128A1512250A128A15F7
:101D2800730883120313A7007208A6000A302D0255
:101D3800031C9F2EA02EA42E0730AA002A08AD0748
:101D48003030AA002A08AD072D08AA002E08840002
:101D58002A08831380000130AE0226082704031DD9
:101D6800B62EB72E742E0130AA002A08AE07080036
:101D7800283083120313AA002A08B200E52F253061
:101D880035060319C82EC92ED02E35080A168A1111
:101D980056270A128A15E52FAE011F2F3208840034
:101DA80083130008B0000030B1000130AA002A08EF
:101DB800B20730083104031DE22EE32EFE2E5B30FD
:101DC800B0008830B100FE2E3108FF0030088400D2
:101DD8000A128A1100270A128A150A168A1156272A
:101DE8000A128A15013083120313B0070318B10AC7
:101DF8000030B1073108FF00300884000A128A1148
:101E080000270A128A15003A031D0B2F0C2FE82E03
:101E1800E52F3208840083130008AA002A08B500B9
:101E28000230AA002A08B20735080A168A1156276E
:101E38000A128A15E52F2708AB002608AA00A60A69
:101E48000319A70A2B08FF002A0884000A128A111E
:101E580000270A128A15B500AC00AD012D08003A1A
:101E68000319372F182F2C08003A0319FF2F633A4C
:101E780003190D2F073A0319482F0D3A0319482F54
:101E88001A3A0319D22E182F320884008313000837
:101E9800B300840A0008B4000230AA002A08B20776
:101EA800B41F572F582F612F0330AA002A08AE04F9
:101EB800B309B409B30A0319B40AB501B50A350858
:101EC800AA002A07123E840087300318013EFF004B
:101ED8000A128A1100270A128A15AB000A128A11FF
:101EE80000270A128A15AC002C083402031D7E2F25
:101EF8002B0833020318812F822F832F8D2F013057
:101F0800AA002A08B50705303506031D8C2F8D2F2A
:101F1800632F2E0803390319922F932F992F2D30F1
:101F28000A168A1156270A128A15831203133508CE
:101F3800AA002A08AF00DA2F0A30A0000030A1005A
:101F48002F08AA002A07123E840087300318013E92
:101F5800FF000A128A1100270A128A15F2000A12D3
:101F68008A1100270A128A15F3003408F50033088D
:101F7800F4000A128A1512250A128A1573088312A8
:101F88000313A3007208A2000A128A151E240A125B
:101F98008A15831203132008303EAB002B08B500C6
:101FA80035080A168A1156270A128A15FF30831235
:101FB8000313AA002A08AF072F0A031DE42FE52FF1
:101FC800A02F831203132708AB002608AA00A60A2D
:101FD8000319A70A2B08FF002A0884000A128A118D
:101FE80000270A128A15AC002C08B5003508031D15
:081FF800FE2FFF2FC32E08008D
:102E8C00472F482F000008004230F200F20B4C2F65
:102E9C00000008000A128A15D4240A168A110800A8
:102EAC00F80078080A168A11BC270A168A1108003D
:102EBC0064008001840A04060319003404065F2FA1
:102ECC000D30F300FB30F200F20B6A2FF30B6A2F7C
:102EDC006F2F0800F20020307202031C762F772F20
:102EEC00792F03107A2F03140800F2007208831252
:102EFC00031388000A128A15BD200A168A110800CD
:102F0C0001300A168A11AC270A168A110A168A1180
:102F1C0066270A168A1108007934E934F6344234EB
:102F2C001534CD345B340734DB340334D2340434FD
:102F3C000230F4000430F300BA30F200F20BA42F8C
:102F4C00F30BA42FF40BA42F00000800F70083123E
:102F5C000313091077080A168A117B270A168A119F
:102F6C000A168A114A270A168A110800F7008312DA
:102F7C000313091477080A168A117B270A168A117B
:102F8C000A168A114A270A168A110800F2005B30C9
:102F9C0072020318D22FD32FDA2F41307202031C86
:102FAC00D82FD92FDA2FF21672080800F300F2018D
:102FBC005B3073020318E32FE42FEC2F41307302C4
:102FCC00031CE92FEA2FEC2FF201F20A720C080015
:102FDC00F300F2017F3073020318F52FF62FFE2F4A
:102FEC0021307302031CFB2FFC2FFE2FF201F20A7F
:042FFC00720C08004B
:02400E00F23F7F
:00000001FF
