:060000000A128A110C280F
:10000800FE00030EF0000A08F1000A128A113E2BC6
:100018000A128A110F28FA01FB0183120313B20195
:10002800B301B401B501B601B701B801B901BA010C
:1000380083010A128A11922883120313A800210847
:10004800A6002008A5002308F3002208F2002608CD
:10005800F5002508F4000A128A1149210A128A11AA
:10006800730883120313A6007208A5000130A400C8
:100078002408A80725082604031D43284428272800
:1000880028088400831380010130A8022308F300A4
:100098002208F2002108F5002008F4000A128A114B
:1000A80006220A128A11720883120313A400240874
:1000B800A7002308F3002208F2002108F500200811
:1000C800F4000A128A1149210A128A11730883124C
:1000D8000313A1007208A0000A302702031C752828
:1000E80076287A280730A4002408A7073030A4000F
:1000F8002408A7072708A4002808840024088313D5
:1001080080000130A80220082104031D8C288D28B6
:100118004A280130A4002408A80708008B130A12F3
:100128008A119D220A128A118B170A128A11D62364
:100138000A128A11F801F80A01300A128A11CB2131
:100148000A128A11013083120313A0008030A10023
:100158000E30AF002F08A2000A128A1140220A129C
:100168008A117A300A128A115D230A128A117B08D1
:1001780083120313B0007A08AF000310B00CAF0C61
:100188002F08FA003008FB007B08AA007A08A900AB
:100198000A30AB000030AC0036300A128A11C42293
:1001A8000A128A11F801F80A02300A128A11CB21C0
:1001B8000A128A11363083120313A0000030A100FE
:1001C8000330AF002F08A2000A128A1140220A1237
:1001D8008A111A3083120313B1005E30B0006D30FB
:1001E800AF00AF0BF528B00BF528B10BF528FC28AC
:1001F800B5280A128A110C280A128A11A7230A1292
:100208008A1103300A128A1172220A128A110A12FA
:100218008A11CC230A128A1103300A128A11722217
:100228000A128A110A128A11CC230A128A1103307F
:100238000A128A1172220A128A110A128A11CC230E
:100248000A128A1102300A128A1172220A128A11BB
:100258000A128A11CC230A128A1128300A128A112A
:1002680097230A128A1106300A128A1197230A1252
:100278008A110E300A128A1197230A128A110A1259
:100288008A11B5230A128A110800F701F8017208C9
:1002980073040319502951298829F901F90A5F299A
:1002A80001300310F20DF30DFF3E031D55290130F7
:1002B800F6007608F907F31F6229632954290130EB
:1002C8000310F70DF80DFF3E031D6429730875022E
:1002D800031D702972087402031C732974297B2971
:1002E8007208F4027308031CF503F5027714013051
:1002F8000310F30CF20CFF3E031D7C290130F902B8
:10030800031D8729882963297808F3007708F200F4
:1003180008000A128A11A7230A128A1130300A1219
:100328008A1197230A128A110A128A11CC230A12F7
:100338008A1130300A128A1197230A128A110A1276
:100348008A11CC230A128A1130300A128A11972393
:100358000A128A110A128A11CC230A128A11383019
:100368000A128A1197230A128A1106300A128A1170
:1003780097230A128A110E300A128A1197230A1239
:100388008A110A128A11B5230A128A110800F90083
:10039800ED297808803E0A128A1197230A128A11D9
:1003A800052A7808C03E0A128A1197230A128A1170
:1003B800052A7808903E0A128A1197230A128A1190
:1003C800052A7808D03E0A128A1197230A128A1140
:1003D800052A790883120313A000A1012108003A15
:1003E8000319F729052A2008013A0319CD29033AE8
:1003F8000319D529013A0319DD29073A0319E52913
:10040800052A08007208730403190B2A0C2A3B2AD0
:10041800F701F70A1A2A01300310F20DF30DFF3E17
:10042800031D102A0130F6007608F707F31F1D2A6E
:100438001E2A0F2A73087502031D242A72087402E3
:10044800031C272A282A2E2A7208F4027308031C80
:10045800F503F50201300310F30CF20CFF3E031D07
:100468002F2A0130F702031D3A2A3B2A1E2A750853
:10047800F3007408F2000800831203130914F90149
:100488006B2A79082007A4002108A3000318A30AEF
:10049800F91F4F2AA303831203132308A500250875
:1004A800FF00240884000A128A1100230A128A1104
:1004B800A6002608F80078080A128A1187230A126B
:1004C8008A11013083120313A3002308F9072208B5
:1004D8007902031C702A712A452A0800F200721C4E
:1004E800762A772A7C2A83120313B501B50A7F2A54
:1004F80083120313B501F21C822A832A862AB401C7
:10050800B40A872AB401721D8A2A8B2A8E2AB3015B
:10051800B30A8F2AB301F21D922A932A962AB201AE
:10052800B20A972AB2010A128A1176230A128A118C
:1005380008008312031385018601870183160313BC
:100548008801831203138901013083160313850080
:100558000130860087018312031388018316031371
:1005680089018130810010308B0007309C00813078
:10057800831203139F008E30831603139F00080015
:1005880083120313AE00AA1FCA2ACB2ADB2A2D30F6
:10059800AD002E0884002D08831380000130AD00C3
:1005A8002D08AE07A909AA09A90A0319AA0A2A083F
:1005B800A1002908A0002C08A3002B08A2002E08DF
:0C05C8000A128A1120200A128A11080071
:10060000FF1B0A2B83137F1883170008840A031922
:10061000FF0A080003308A000408840A82070034B5
:1006200041342F344434203443344F344E34563420
:1006300045345234533449344F344E340034F50089
:100640007508F30004300310F30CFF3E031D232B49
:100650007308F4007408F60076080A128A117222F0
:100660000A128A1175080F39F3007308F60076082C
:100670000A128A1172220A128A1108000B1E412BDB
:10068000422B562B8B1C452B462B562B8B100310C5
:1006900083120313861C031403184F2B532B83124E
:1006A00003138614562B83120313861071088A00D5
:1006B000700E8300FE0E7E0E0900F300A630F200DD
:1006C000F20B602B0000831203131F151F19692BF7
:1006D0006A2B662B73088400831603131E088000A0
:1006E000840A831203131E08800008008312031378
:1006F00089140A128A11E2230A128A11831203133F
:1007000089100A128A11E2230A128A110800F700DE
:1007100083120313091477080A128A11C1230A12DB
:100720008A110A128A11DC230A128A110800F700C2
:1007300083120313091077080A128A11C1230A12BF
:100740008A110A128A11DC230A128A110800023067
:10075000F4000430F300BA30F200F20BAD2BF30BCF
:10076000AD2BF40BAD2B0000080001300A128A11EA
:1007700097230A128A110A128A11CC230A128A11AB
:100780000800F20072088312031388000A128A110B
:1007900076230A128A1108000D30F300FB30F200B4
:1007A000F20BD02BF30BD02BD52B08000A128A1199
:1007B0008D210A128A1108004230F200F20BDE2B62
:0C07C00000000800E32BE42B0000080000
:02400E00F23F7F
:00000001FF
