:060000000A128A110C280F
:10000800FE00030EF0000A08F1000A128A111328F4
:100018000A128A110F2883010A128A1171280B1EED
:10002800162817282B288B1C1A281B282B288B10DE
:10003800031083120313861C03140318242828288A
:100048008312031386142B288312031386108B1D27
:100058002E282F2854280B1C3228332854280B10FC
:1000680083120313061A39283A283D2801308700DD
:100078005428861A402841284428023087005428EA
:10008800061B472848284B28043087005428861B1D
:100098004E284F2852280830870054280708870020
:1000A80071088A00700E8300FE0E7E0E090083160A
:1000B80003138501F13086008701880189018312C5
:1000C800031385018601870188018901833083161E
:1000D8000313810018308B0008008B130A128A1151
:1000E8005B200A128A118B1778280A128A110C28A9
:02400E00F23F7F
:00000001FF
