:060000000A128A110C280F
:10000800FE00030EF2000A08F3000A128A111528EE
:100018000A128A110F28F001F10183010A128A11CC
:1000280047280B1E182819282D288B1C1C281D282A
:100038002D288B10031083120313861C0314031836
:1000480026282A288312031386142D2883120313C3
:1000580086108B1E3028312840280B1D342835285F
:10006800402806308312031381000130F00703187B
:10007800F10A0030F1070B1173088A00720E830031
:10008800FE0E7E0E09008B130A128A116C200A12CA
:100098008A118B1788307006133003197106031DF7
:1000A800562857284E28031083120313061F0314DB
:1000B80003185F2863288312031306176628831220
:1000C80003130613F001F1014E280A128A110C28B5
:1000D80083120313850186018701831603138801A0
:1000E80083120313890183160313850101308600E7
:1000F8008701831203138801831603138901813052
:10010800810030308B000630831203138100F00128
:04011800F1010800E9
:02400E00F23F7F
:00000001FF
