:060000000A128A11FC2F18
:100F6A000A128A11C3270A128A110A128A11DB2766
:100F7A000A128A11BA2F0A128A110028831203133D
:100F8A0085018601870183160313880183120313DF
:100F9A0089018316031385010130860087018312B4
:100FAA0003138801831603138901080083120313AC
:100FBA0086140D30F200AF30F100B630F000F00BBD
:100FCA00E42FF10BE42FF20BE42F0000831203133A
:100FDA0086100D30F200AF30F100B630F000F00BA1
:100FEA00F42FF10BF42FF20BF42F00000800830109
:060FFA000A128A11B52F56
:08400000FF3FFF3FFF3FFF3FC0
:02400E00723FFF
:00000001FF
