:060000000A128A110C280F
:10000800FE00030EF2000A08F3000A128A111528EE
:100018000A128A110F28F501F60183010A128A11C2
:10002800A328831203138C1D1A281B286E28141268
:10003800141B1F2820282428941F232824282E280E
:100048001308F000F1017008F5007108F6001413A8
:100058009413141683160313941A332834284D283E
:100068001419372838284D28831203131308F00071
:10007800F1017008F5007108F60083160313141CCB
:1000880046284728412883120313130888001416AA
:100098006C28941A502851286C28141D5428552867
:1000A8006C28831203131308F000F1017008F5009F
:1000B8007108F6008316031314108312031306083D
:1000C800930014168316031314186B286C286628DB
:1000D80083128C1173088A00720E8300FE0E7E0E46
:1000E80009008312031385018601870188018901AC
:1000F800831603138501FF30860087018801890173
:10010800810130300A128A118C200A128A110800E3
:10011800F400740883160313930036308312031314
:1001280094000130831603139100803094008715E2
:1001380007160B178C15831203138C1108008B13E9
:100148000A128A1175200A128A118B17AA280A1214
:040158008A110C28D4
:02400E00713F00
:00000001FF
