:04000000C5EF3FF019
:107F8A000001C8EF3FF0D0EC3FF0E5EC3FF0CAEF5C
:107F9A003FF000EF00F0000E806E000E816E000EC2
:107FAA00826E000E836E000E846E000E926E000EBC
:107FBA00936E000E946E010E956E000E966E120070
:107FCA0083820D0E026EAF0E016EB60EE82EFED73C
:107FDA00012EFCD7022EFAD700D083920D0E026E24
:107FEA00AF0E016EB60EE82EFED7012EFCD7022E7A
:067FFA00FAD700D01200CE
:020000040030CA
:0E000000000C1F1FFF8381FF0FC00FE00F4099
:00000001FF
