:060000000A128A110C280F
:10000800FE00030EF0000A08F1000A128A11BE2A47
:100018000A128A110F28FA01FB0183120313AA019D
:10002800AB01AC01AD01AE01AF01B001B101B2014C
:1000380083010A128A1120288B130A128A11582266
:100048000A128A118B170A128A1156230A128A1168
:10005800F801F80A01300A128A11C0210A128A111D
:10006800013083120313A0008030A1001030A700D4
:100078002708A2000A128A11FB210A128A117A3073
:100088000A128A11DD220A128A117B08F3007A0803
:10009800F2000A128A118E200A128A11831203139F
:1000A800A7002708AE0020302E06031D5C285D2817
:1000B80067280A128A11E4200A128A11831203138C
:1000C800A7002708AE00F801F80A02300A128A11C0
:1000D800C0210A128A112E3083120313A0000030A7
:1000E800A100A201A20A0A128A11FB210A128A118E
:1000F800063083120313A9001330A800AD30A700FF
:10010800A70B8428A80B8428A90B842843280A1243
:100118008A110C28A9283030E3283130E3283230FE
:10012800E3283330E3283430E3283530E328363009
:10013800E3283730E3283830E3283930E3282A30F9
:10014800E3282330E3282030E3287308003A031912
:10015800B728013A0319BC28033A0319D328013AEE
:100168000319DE28A7287208E83A0319A328A72844
:100178007208043A03199D28233A031997280B3A61
:1001880003198F28793A03199128093A03199F28E6
:10019800C23A03199928373A0319A528A7287208DB
:1001A800003A031993280F3A0319A128B73A0319FB
:1001B8009B28A7287208FF3A03199528A728080042
:1001C80083120313071687120713071CEC28ED2860
:1001D800EF2831303829871CF228F328F5283430E5
:1001E8003829071DF828F928FB2837303829871DB2
:1001F800FE28FF2801292A303829071287160713F5
:10020800071C072908290A2932303829871C0D2993
:100218000E29102935303829071D132914291629C4
:1002280038303829871D19291A291C2930303829CE
:10023800071287120717071C22292329252933307B
:100248003829871C282929292B2936303829071DC0
:100258002E292F29312939303829871D3429352964
:10026800372923303829203008000A128A11272319
:100278000A128A1103300A128A112D220A128A11CF
:100288000A128A114C230A128A1103300A128A119F
:100298002D220A128A110A128A114C230A128A1173
:1002A80003300A128A112D220A128A110A128A119F
:1002B8004C230A128A1102300A128A112D220A12BC
:1002C8008A110A128A114C230A128A1128300A123A
:1002D8008A1117230A128A1106300A128A11172363
:1002E8000A128A110E300A128A1117230A128A1169
:1002F8000A128A1135230A128A1108000A128A1171
:1003080027230A128A1130300A128A1117230A1277
:100318008A110A128A114C230A128A1130300A12E1
:100328008A1117230A128A110A128A114C230A12F7
:100338008A1130300A128A1117230A128A110A12F6
:100348008A114C230A128A1138300A128A1117238B
:100358000A128A1106300A128A1117230A128A1100
:100368000E300A128A1117230A128A110A128A11E8
:1003780035230A128A110800F900E2297808803E1C
:100388000A128A1117230A128A11FA297808C03E1C
:100398000A128A1117230A128A11FA297808903E3C
:1003A8000A128A1117230A128A11FA297808D03EEC
:1003B8000A128A1117230A128A11FA297908831254
:1003C8000313A000A1012108003A0319EC29FA2916
:1003D8002008013A0319C229033A0319CA29013A24
:1003E8000319D229073A0319DA29FA2908008312CE
:1003F80003130914F901262A79082007A400210803
:10040800A3000318A30AF91F0A2AA30383120313DC
:100418002308A5002508FF00240884000A128A1171
:1004280080220A128A11A6002608F80078080A1203
:100438008A1107230A128A11013083120313A300B9
:100448002308F90722087902031C2B2A2C2A002AE0
:100458000800F200721C312A322A372A8312031349
:10046800AD01AD0A3A2A83120313AD01F21C3D2AED
:100478003E2A412AAC01AC0A422AAC01721D452A27
:10048800462A492AAB01AB0A4A2AAB01F21D4D2A7A
:100498004E2A512AAA01AA0A522AAA010A128A1124
:1004A800F6220A128A1108008312031385018601B5
:1004B800870183160313880183120313890101300E
:1004C800831603138500013086000F3087008312DE
:1004D80003138801831603138901813081001030CA
:1004E8008B0007309C008130831203139F008E30ED
:1004F800831603139F000800FF1B8A2A83137F18A3
:1005080083170008840A0319FF0A080002308A00CA
:100518000408840A8207003420342034203420342C
:100528004B34453459345034413444342034203425
:10053800203420340034F5007508F300043003102B
:10054800F30CFF3E031DA32A7308F4007408F60099
:1005580076080A128A112D220A128A1175080F3993
:10056800F3007308F60076080A128A112D220A127F
:100578008A1108000B1EC12AC22AD62A8B1CC52A3A
:10058800C62AD62A8B10031083120313861C031461
:100598000318CF2AD32A831203138614D62A831268
:1005A8000313861071088A00700E8300FE0E7E0EFB
:1005B8000900F300A630F200F20BE02A00008312D3
:1005C80003131F151F19E92AEA2AE62A730884006B
:1005D800831603131E088000840A831203131E085F
:1005E800800008008312031389140A128A116223F7
:1005F8000A128A118312031389100A128A116223BC
:100608000A128A110800F7008312031309147708E5
:100618000A128A1141230A128A110A128A115C23CA
:100628000A128A110800F7008312031309107708C9
:100638000A128A1141230A128A110A128A115C23AA
:100648000A128A1108000230F4000430F300BA30AC
:10065800F200F20B2D2BF30B2D2BF40B2D2B00009E
:10066800080001300A128A1117230A128A110A1285
:100678008A114C230A128A110800F20072088312A8
:10068800031388000A128A11F6220A128A11080036
:100698000D30F300FB30F200F20B502BF30B502B14
:1006A800552B08000A128A1182210A128A110800A1
:1006B8004230F200F20B5E2B00000800632B642B23
:0406C8000000080026
:02400E00F23F7F
:00000001FF
