:060000000A128A110C280F
:10000800FE00030EF0000A08F1000A128A11952872
:100018000A128A110F2883010A128A11852883126D
:10002800031308128812081388170D30F400AF3034
:10003800F300B630F200F20B1F28F30B1F28F40B65
:100048001F28000083120313081288120817881348
:100058000D30F400AF30F300B630F200F20B322866
:10006800F30B3228F40B3228000083120313081212
:100078008816081388130D30F400AF30F300B6303B
:10008800F200F20B4528F30B4528F40B4528000035
:100098008312031308168812081388130D30F4000E
:1000A800AF30F300B630F200F20B5828F30B5828A3
:1000B800F40B5828000008008312031385018601F9
:1000C800870183160313880183120313890183169A
:1000D80003138501013086008030870083120313E3
:1000E80088018316031389018130810010308B0049
:1000F800831203130812881208138813871407152C
:1001080008008B130A128A1160200A128A118B17B1
:100118000A128A1113200A128A118C280A128A11CB
:100128000C2871088A00700E8300FE0E7E0E0900EE
:02400E00F23F7F
:00000001FF
