:060000000A128A110C280F
:10000800FE00030EF2000A08F3000A128A1169289A
:100018000A128A110F28F001F10183010A128A11CC
:1000280015288B130A128A1147200A128A118B1776
:100038000B1D1F2820281C2806308312031381005B
:100048000130F0070318F10A0030F1070B1188306E
:100058007006133003197106031D332834281C2831
:100068000310061F031403183A283E2883120313AB
:1000780006174128831203130613F001F1011C2807
:100088000A128A110C28831203138501860187013D
:10009800831603138801831203138901831603133C
:1000A80085010130860087018312031388018316B6
:1000B800031389018130810010308B0006308312D0
:1000C80003138100F001F10108000B1E6C286D2854
:1000D80081288B1C7028712881288B1003108312AB
:1000E8000313861C031403187A287E28831203132B
:1000F8008614812883120313861073088A00720EEF
:080108008300FE0E7E0E0900CB
:02400E00F23F7F
:00000001FF
