:060000000A128A110C280F
:10000800FE00030EF1000A08F2000A128A118C2879
:100018000A128A110F28F601F701F801F901830184
:100028000A128A1117288B130A128A11CD200A1274
:100038008A118B177908013E84000A128A11E92077
:100048000A128A1183120313870006150230F5007D
:100058004530F400A930F300F30B3028F40B3028B6
:10006800F50B302837288312031306117808013E50
:1000780084000A128A11E9200A128A11870086155B
:100088000230F5004530F400A930F300F30B4A289C
:10009800F40B4A28F50B4A285128831203138611BA
:1000A8007708013E84000A128A11E9200A128A118F
:1000B800870006160230F5004530F400A930F30039
:1000C800F30B6428F40B6428F50B64286B2883125F
:1000D800031306127608013E84000A128A11E920E9
:1000E8000A128A11870086160230F5004530F4009E
:1000F800A930F300F30B7E28F40B7E28F50B7E283D
:1001080085288312031386121E280A128A110C28C6
:100118000B1E8F289028C6288B1C93289428C62845
:100128008B107908013EF0007008F9000A30790652
:10013800031D9F28A028C628F9017808013EF00071
:100148007008F8000A307806031DAB28AC28C628CA
:10015800F8017708013EF0007008F7000A307706CA
:10016800031DB728B828C628F7017608013EF00015
:100178007008F6000A307606031DC328C428C6286E
:10018800F601C62872088A00710E8300FE0E7E0EE4
:10019800090083120313850186018701831603135F
:1001A8008801831203138901831603138501013023
:1001B80086008701831203138801831603138901BC
:1001C8008330810010308B00080000308A0004085A
:1001D800840A820700343F3406345B344F34663473
:1001E8006D347D3407347F346F3477347C3439345C
:0601F8005E34793471341D
:02400E00F23F7F
:00000001FF
