:060000000A128A110C280F
:10000800FE00030EF0000A08F1000A128A11A62B5E
:100018000A128A110F28FA01FB0183120313B20195
:10002800B301B401B501B601B701B801B901BA010C
:10003800BB01BC0183010A128A1122288B130A1200
:100048008A1136230A128A118B170A128A116E2412
:100058000A128A11F801F80A01300A128A113722A5
:100068000A128A11013083120313A0008030A10004
:100078000A30AF002F08A2000A128A11AC220A1215
:100088008A110A128A11F7230A128A117308FB00CF
:100098007208FA007B0883120313B0007A08AF00D5
:1000A8000310B00CAF0C2F08FA003008FB007B08D7
:1000B800AA007A08A9000A30AB000030AC0038303A
:1000C8000A128A1161230A128A11F801F80A023009
:1000D8000A128A1137220A128A113830831203133E
:1000E800A0000030A1000330AF002F08A2000A12C0
:1000F8008A11AC220A128A1183120313061A852860
:100108008628AB280630AF002F08F80002300A1204
:100118008A1137220A128A11383083120313A00079
:100128000030A1000330AF002F08A2000A128A1184
:10013800AC220A128A117A0883120313AF002F081F
:10014800F2003D080A128A11DE220A128A1183126D
:100158000313861AB028B128E8280930AF002F0801
:10016800F80002300A128A1137220A128A11831201
:1001780003133D080A128A11E0230A128A11831216
:100188000313AF002F08B7003708AF00B0012F08DE
:10019800A9003008AA000A30AB000030AC003830A3
:1001A8000A128A1161230A128A1138308312031342
:1001B800A0000030A1000330AF002F08A2000A12EF
:1001C8008A11AC220A128A11033083120313B10078
:1001D8008A30B0005530AF00AF0BF028B00BF028D4
:1001E800B10BF02845280A128A110C288312031330
:1001F800A8002108A6002008A5002308F30022086B
:10020800F2002608F5002508F4000A128A11B52123
:100218000A128A11730883120313A6007208A50034
:100228000130A4002408A80725082604031D1D2959
:100238001E29012928088400831380010130A8029F
:100248002308F3002208F2002108F5002008F40032
:100258000A128A1172220A128A117208831203136F
:10026800A4002408A7002308F3002208F2002108AC
:10027800F5002008F4000A128A11B5210A128A1121
:10028800730883120313A1007208A0000A30270222
:10029800031C4F29502954290730A4002408A70714
:1002A8003030A4002408A7072708A40028088400E1
:1002B8002408831380000130A80220082104031DAC
:1002C8006629672924290130A4002408A807080002
:1002D8000A128A113F240A128A1103300A128A115B
:1002E8000B230A128A110A128A1164240A128A112B
:1002F80003300A128A110B230A128A110A128A1170
:1003080064240A128A1103300A128A110B230A1272
:100318008A110A128A1164240A128A1102300A12F6
:100328008A110B230A128A110A128A1164240A12EA
:100338008A1128300A128A112F240A128A110630CB
:100348000A128A112F240A128A110E300A128A11EF
:100358002F240A128A110A128A114D240A128A11AC
:100368000800F701F801720873040319BC29BD29B4
:10037800F429F901F90ACB2901300310F20DF30D24
:10038800FF3E031DC1290130F6007608F907F31F67
:10039800CE29CF29C02901300310F70DF80DFF3EF3
:1003A800031DD02973087502031DDC297208740225
:1003B800031CDF29E029E7297208F4027308031CEB
:1003C800F503F502771401300310F30CF20CFF3E2D
:1003D800031DE8290130F902031DF329F429CF2967
:1003E8007808F3007708F20008000A128A113F24FF
:1003F8000A128A1130300A128A112F240A128A111D
:100408000A128A1164240A128A1130300A128A11D7
:100418002F240A128A110A128A1164240A128A11D4
:1004280030300A128A112F240A128A110A128A11EC
:1004380064240A128A1138300A128A112F240A12E7
:100448008A1106300A128A112F240A128A110E30D4
:100458000A128A112F240A128A110A128A114D24AB
:100468000A128A110800F900592A7808803E0A12EF
:100478008A112F240A128A11712A7808C03E0A129A
:100488008A112F240A128A11712A7808903E0A12BA
:100498008A112F240A128A11712A7808D03E0A126A
:1004A8008A112F240A128A11712A790883120313D8
:1004B800A000A1012108003A0319632A712A200823
:1004C800013A0319392A033A0319412A013A03194F
:1004D800492A073A0319512A712A08007208730435
:1004E8000319772A782AA72AF701F70A862A0130FA
:1004F8000310F20DF30DFF3E031D7C2A0130F600B8
:100508007608F707F31F892A8A2A7B2A7308750257
:10051800031D902A72087402031C932A942A9A2AAB
:100528007208F4027308031CF503F5020130031086
:10053800F30CF20CFF3E031D9B2A0130F702031D4A
:10054800A62AA72A8A2A7508F3007408F200080068
:10055800831203130914F901D72A79082007A40084
:100568002108A3000318A30AF91FBB2AA3038312B7
:1005780003132308A5002508FF00240884000A1295
:100588008A11C5230A128A11A6002608F8007808DD
:100598000A128A111F240A128A11013083120313C6
:1005A800A3002308F90722087902031CDC2ADD2AA4
:1005B800B12A0800F400831603178C18E42AE52AE8
:1005C800DF2A7408831203178D0072088C003F30ED
:1005D800F3007308831603178C05831203130310A3
:1005E8008B1FF72AF82AF92A03148B13831603178B
:1005F8000C1555308D00AA308D008C140C11831207
:100608000313031C082B092B0A2B8B170800F20075
:10061800721C0F2B102B152B83120313B501B50A6F
:10062800182B83120313B501F21C1B2B1C2B1F2B39
:10063800B401B40A202BB401721D232B242B272BC1
:10064800B301B30A282BB301F21D2B2B2C2B2F2B14
:10065800B201B20A302BB2010A128A110E240A1210
:100668008A11080083120313850186018701831606
:1006780003138801831203138901013083160313BE
:1006880085003130860087018312031388018316A1
:10069800031389018130810010308B0007309C00E2
:1006A8008130831203139F008E30831603139F003B
:1006B80083120313BD01BD0A080083120313AE00A1
:1006C800AA1F672B682B782B2D30AD002E088400CD
:1006D8002D08831380000130AD002D08AE07A9094D
:1006E800AA09A90A0319AA0A2A08A1002908A00028
:1006F8002C08A3002B08A2002E080A128A11FA203F
:100708000A128A110800F5007508F3000430031076
:10071800F30CFF3E031D8B2B7308F4007408F600DE
:1007280076080A128A110B230A128A1175080F39E2
:10073800F3007308F60076080A128A110B230A12CE
:100748008A1108000B1EA92BAA2BBE2B8B1CAD2BC4
:10075800AE2BBE2B8B10031083120313861C0314BD
:100768000318B72BBB2B831203138614BE2B8312DB
:100778000313861071088A00700E8300FE0E7E0E29
:100788000900FF1BCF2B83137F1883170008840AE7
:100798000319FF0A080003308A000408840A820744
:1007A800003443345534523452342034523457349C
:1007B8002034523444340034F300640083160317A1
:1007C8008C18E72BE82BE12B7308831203178D0095
:1007D8003F30F2007208831603178C050C1483123D
:1007E80003170C080800A630F400F40BF92B0000DE
:1007F800831203131F151F19022C032CFF2B1E082D
:10080800F600831603131E08F5007608F300750832
:10081800F20008008312031389140A128A117A2439
:100828000A128A118312031389100A128A117A2470
:100838000A128A110800F7008312031309147708B3
:100848000A128A1159240A128A110A128A11742466
:100858000A128A110800F700831203130910770897
:100868000A128A1159240A128A110A128A11742446
:100878000A128A1108000230F4000430F300BA307A
:10088800F200F20B452CF30B452CF40B452C000021
:10089800080001300A128A112F240A128A110A123A
:1008A8008A1164240A128A110800F200720883125D
:1008B800031388000A128A110E240A128A110800EA
:1008C8000D30F300FB30F200F20B682CF30B682CB0
:1008D8006D2C08000A128A11F9210A128A110800DF
:1008E8004230F200F20B762C000008007B2C7C2CA6
:0408F80000000800F4
:02400E00F23F7F
:00000001FF
