:060000000A128A110C280F
:10000800FE00030EF2000A08F3000A128A111528EE
:100018000A128A110F28F001F10183010A128A11CC
:100028008C280B1E182819282D288B1C1C281D28E5
:100038002D288B10031083120313861C0314031836
:1000480026282A288312031386142D2883120313C3
:100058008610831603138C1C3228332858288312E1
:1000680003138C1C3828392858288C107008013E36
:10007800F00071080318013E003EF100643070067C
:100088007104031D4828492858280310081C031424
:1000980003184F2853288312031308145628831271
:1000A80003130810F001F10173088A00720E83002F
:1000B800FE0E7E0E09008312031385018601870157
:1000C80083160313880183120313890101308316F1
:1000D80003138500013086008030870083120313E4
:1000E80088018316031389018130810050308B0009
:1000F80002308C008D01313092007F30831203135F
:100108009200F001F1010730831603139C000800E8
:100118008B130A128A115F200A128A118B179328EF
:060128000A128A110C28E6
:02400E00F23F7F
:00000001FF
