:060000000A128A11FC2F18
:100D16000A128A11A8260A128A11831603131114BD
:100D260008000A128A11A8260A128A1183160313CA
:100D360011150800F0000A128A11A8260A128A1153
:100D46007008831203139300080083160313141903
:100D5600AD2EAE2EA82E11081F39031DB32EB42EAC
:100D6600A82E08000A128A11A8260A128A118316CA
:100D7600031391150A128A11A8260A128A118312E0
:100D860003131308F2007208F3000A128A11A82648
:100D96000A128A11700871040319D22ED62E8316F0
:100DA60003139116D92E8316031391121116730885
:100DB6000800831203138501860187018316031336
:100DC6008801831203138901831603138501FF30FB
:100DD6008600870183120313880183160313890192
:100DE6008101003083120313A3000130A200863074
:100DF600A100A030A0000A128A1104270A128A1143
:100E06000800831203132008A4002108A500220865
:100E1600A6002308A70002300310A40DA50DA60DF9
:100E2600A70DFF3E031D0F2F2708F3002608F2002B
:100E36002508F1002408F0000130F7003130F600F3
:100E46002D30F5000030F4000A128A1196270A1296
:100E56008A117008FF3E831603139300283083120D
:100E66000313940083160313910194018715071643
:100E760008008B130A128A11DC260A128A118B17B4
:100E86000A128A118B260A128A1130300A128A1126
:100E96009D260A128A118312031306080A128A1162
:100EA6009D260A128A110A128A1194260A128A119A
:100EB600063083120313AA001330A900AD30A80030
:100EC600A80B632FA90B632FAA0B632F0A128A1193
:100ED6008B260A128A1131300A128A119D260A12AD
:100EE6008A110030F000F1000A128A11B5260A12A2
:100EF6008A118312031388000A128A1194260A1291
:100F06008A11063083120313AA001330A900AD30EC
:100F1600A800A80B8C2FA90B8C2FAA0B8C2F432F64
:100F26000A128A1100280030FC000030FB00003055
:100F3600FA000030F9007308720471047004031992
:100F4600A52FA62FF32FFD01FD0AB62F0130F800BD
:100F56000310F00DF10DF20DF30DF80BAB2F013070
:100F6600F8007808FD07F31FB92FBA2FA92F013013
:100F7600F8000310F90DFA0DFB0DFC0DF80BBC2F54
:100F860073087702031DD12F72087602031DD12F35
:100F960071087502031DD12F70087402031CD42F2B
:100FA600D52FE42F7008F4027108031C710FF502A7
:100FB6007208031C720FF6027308031C730FF70204
:100FC600791401300310F30CF20CF10CF00CFF3E17
:100FD600031DE52F0130FD02031DF22FF32FBA2F5B
:100FE6007C08F3007B08F2007A08F1007908F0002B
:0A0FF600080083010A128A113C2F43
:02400E00713F00
:00000001FF
