:060000000A128A110C280F
:10000800FE00030EF6000A08F7000A128A111528E6
:100018000A128A110F28F801F90183010A128A11BC
:100028008228831203130C1C1A281B283F288316C6
:1000380003130C1C202821283F28831203130C10BB
:100048000310061D031403182A282E2883120313ED
:1000580006153128831203130611F801F9010E0859
:10006800B03EF4000F080318013E3C3EF50074084A
:100078008E0075088F000B1D422843287B288B1E95
:10008800462847287B280B1103108312861C03146B
:1000980003184F28532883120313861456288312F3
:1000A800031386107808013EF80079080318013E0A
:1000B800003EF90079087302031D6428780872026B
:1000C800031C672868286A2807146B280710790812
:1000D8007102031D712878087002031C74287528A2
:1000E80077288714782887100108833E81007708CD
:1000F8008A00760E8300FE0E7E0E09008B130A120C
:100108008A11EB200A128A118B1783120313061A1D
:100118008E288F28A2280030730228300319720213
:10012800031897289828A228061E9B289C289828F8
:100138000130F2070318F30A0030F307861AA528DE
:10014800A628B92800307302153003197202031C5F
:10015800AE28AF28B928861EB228B328AF280130A8
:10016800F2020030031CF303F302061BBC28BD286F
:10017800D028003071022830031970020318C528EE
:10018800C628D028061FC928CA28C6280130F00763
:100198000318F10A0030F107861BD328D4288928D0
:1001A80000307102153003197002031CDC28DD28A9
:1001B8008928861FE028E128DD280130F002003078
:1001C800031CF103F10289280A128A110C288312F0
:1001D800031385018601870183160313880183129F
:1001E80003138901831603138501F13086008030DB
:1001F8008700831203138801831603138901803053
:10020800810060308B00833083120313810011302A
:1002180090003C308F00B0308E00831603130C140E
:10022800F801F9011430F2000030F3002830F00032
:060238000030F100080097
:08400000FF3FFF3FFF3FFF3FC0
:02400E00F23F7F
:00000001FF
