:060000000A128A1110280B
:10000800FE00030E83120313C6000A08C7007F0808
:10001800C8000A128A11C12D0A128A1113288312E4
:100028000313CB01CC0183010A128A11222E8312F9
:10003800031323088039A8002808AD002308A80066
:100048002807A9002908B300A21F2B282C282D282F
:10005800331433080319312832284128330A031D81
:10006800362837283F280030A3000030A20000308F
:10007800A1000030A000A21749280030A3000030DA
:10008800A2000030A1000030A00027088039A80095
:100098002808AD062708A8002807A9002908B200E3
:1000A800A61F5728582859283214320803195D28E2
:1000B8005E286D28320A031D622863286B280030E9
:1000C800A7000030A6000030A5000030A400A61745
:1000D80075280030A7000030A6000030A5000030C9
:1000E800A4003208031979287A287F283308031DC9
:1000F8007E287F2888280030A3000030A200003026
:10010800A1000030A0007B2B2008A8002808F000E0
:1001180026080A128A11FB250A128A11710883120D
:100128000313B9007008B8003808A800A901AA018B
:10013800AB012B08B1002A08B0002908AF00280835
:10014800AE003908A800A901AA01AB012B08B70025
:100158002A08B6002908B5002808B4002108A80014
:100168002808F00025080A128A11FB250A128A11AC
:10017800710883120313B9007008B8003808A80082
:10018800A901AA01AB012808AE0729080311031821
:10019800013E0319D028AF072A0803110318013EAE
:1001A8000319D728B0072B0803110318013E0319B8
:1001B800DE28B1073908A800A901AA01AB0128085F
:1001C800B407290803110318013E0319EC28B507E1
:1001D8002A0803110318013E0319F328B6072B0850
:1001E80003110318013E0319FA28B7072208A800CB
:1001F8002808F00024080A128A11FB250A128A111D
:10020800710883120313B9007008B8003808A800F1
:10021800A901AA01AB012808AE0729080311031890
:10022800013E03191829AF072A0803110318013ED4
:1002380003191F29B0072B0803110318013E0319DE
:100248002629B1073908A800A901AA01AB01280885
:10025800B407290803110318013E03193429B50707
:100268002A0803110318013E03193B29B6072B0876
:1002780003110318013E03194229B7070830A800E3
:100288000310AE0DAF0DB00DB10DA80B4429210818
:10029800A8002808F00024080A128A11FB250A126F
:1002A8008A11710883120313B9007008B80038085E
:1002B800A8003908A900AA01AB012808AE07290837
:1002C80003110318013E03196A29AF072A0803110D
:1002D8000318013E03197129B0072B0803110318ED
:1002E800013E03197829B1072008A8002808F00062
:1002F80025080A128A11FB250A128A11710883122D
:100308000313B9007008B8003808A8003908A90014
:10031800AA01AB012808AE07290803110318013EFA
:1003280003199729AF072A0803110318013E031977
:100338009E29B0072B0803110318013E0319A529AC
:10034800B1070830A8000310AE0DAF0DB00DB10D08
:10035800A80BA7292008A8002808F00024080A12DA
:100368008A11FB250A128A11710883120313B90036
:100378007008B8003808A8003908A900AA01AB011C
:100388002808AE07290803110318013E0319CD29CF
:10039800AF072A0803110318013E0319D429B0072F
:1003A8002B0803110318013E0319DB29B1072108A3
:1003B800A8002808F00026080A128A11FB250A124C
:1003C8008A11710883120313B9007008B80038083D
:1003D800A8003908A900AA01AB012808B407290810
:1003E80003110318013E0319FA29B5072A08031156
:1003F8000318013E0319012AB6072B080311031835
:10040800013E0319082AB7072208A8002808F000A7
:1004180025080A128A11FB250A128A11710883120B
:100428000313B9007008B8003808A8003908A900F3
:10043800AA01AB012808B407290803110318013ED3
:100448000319272AB5072A0803110318013E0319BF
:100458002E2AB6072B0803110318013E0319352A63
:10046800B7072208A8002808F00026080A128A11EF
:10047800FB250A128A11710883120313B900700848
:10048800B8003808A8003908A900AA01AB0108304B
:100498000310A80DA90DAA0DAB0DFF3E031D4C2A94
:1004A8002808B407290803110318013E03195D2A17
:1004B800B5072A0803110318013E0319642AB60771
:1004C8002B0803110318013E03196B2AB7072E08DE
:1004D800A8002F08A9003008AA003108AB0018307E
:1004E8000310AB0CAA0CA90CA80CFF3E031D742A20
:1004F8002808B407290803110318013E0319852A9F
:10050800B5072A0803110318013E03198C2AB607F8
:100518002B0803110318013E0319932AB707083063
:10052800A8000310AE0DAF0DB00DB10DA80B952AA4
:1005380033083207A800A901A90D2808823EB8008F
:1005480029080318013EFF3EB900C72A0130A80058
:100558000310B40DB50DB60DB70DA80BAC2AB11F1D
:10056800B62AB72AB82A34140130A8000310AE0DF1
:10057800AF0DB00DB10DA80BBA2AFF30B80703189C
:10058800B90AFF30B907B61FCA2ACB2AAA2AB2016C
:10059800B11FCF2AD02AEC2AFF302E05A800FF3041
:1005A8002F05A900FF303005AA007F303105AB00C8
:1005B8002B082A04290428040319E32AE42AE72A31
:1005C800B201B20AEC2A341CEA2AEB2AEC2AE42A01
:1005D80032080319F02AF12A222B0130B40700301F
:1005E80003180130B507003003180130B607003092
:1005F80003180130B707371C022B032B222B3408B2
:10060800A8003508A9003608AA003708AB00013051
:10061800AC002B0DAB0CAA0CA90CA80CAC0B0D2B29
:100628002B08B7002A08B6002908B5002808B40026
:100638000130B8070318B90A0030B9073908803AF9
:10064800FF0080307F02031D2B2BFF303802031C74
:100658002E2B2F2B3A2B7F3083120313B7008030B9
:10066800B6000030B5000030B4006F2B83120313BE
:100678003908803AFF0080307F02031D452B013086
:1006880038020318482B492B552B003083120313CB
:10069800B7000030B6000030B5000030B400AD013E
:1006A8006F2B831203133808A8002808B300FF3003
:1006B800B405FF30B5057F30B6050030B705331CEB
:1006C800662B672B682BB6173308A8000310280C75
:1006D800A9002908B7002D08A8002808B70437087A
:1006E800A3003608A2003508A1003408A0000800BD
:1006F800F80078080319812B822B962BF31F852B82
:10070800862B962B7009FA007109FB007209FC0010
:100718007309FD00FA0A0319FB0A0319FC0A0319F5
:10072800FD0A9E2B7308FD007208FC007108FB008F
:100738007008FA007308720471047004031DA52B75
:10074800A62BAF2B0030F3000030F2000030F10090
:100758000030F000352C9630F4007408F900C12BF5
:100768000130F4007408F90701300310FD0CFC0C8B
:10077800FB0CFA0CFF3E031DB92BFE307D05031D53
:10078800C62BC72BB42BE32B0130F4007408F907F0
:100798000130FA07003003180130FB070030031856
:1007A8000130FC07003003180130FD070130031049
:1007B800FD0CFC0CFB0CFA0CFF3E031DDB2BFF3081
:1007C8007D05031DE82BE92BC82BF52B0130F90219
:1007D8000130F4000310FA0DFB0DFC0DFD0DF40BB8
:1007E800EE2BFC1BF82BF92BFF2B02307902031898
:1007F800FE2BFF2BEA2B7918022C032C0B2CFF3035
:10080800FA05FF30FB057F30FC05FF30FD050310BE
:10081800F90C7908F400F501F601F7011830031016
:10082800F40DF50DF60DF70DFF3E031D132C74089E
:10083800FA047508FB047608FC047708FD047808B8
:100848000319272C282C2D2CF31F2B2C2C2C2D2C6A
:10085800FD177D08F3007C08F2007B08F1007A0898
:10086800F00008000310720D730DF4007408FA000C
:100878007A08031D402C412C4A2C0030F30000302C
:10088800F2000030F1000030F000AF2C7008F400E6
:100898007108F5007208F6007308F7001F3003109E
:1008A800F70CF60CF50CF40CFF3E031D532C7408E2
:1008B800F8007808F900F217FF30F005FF30F1056D
:1008C800FF30F2050030F3059630FA02FA1F6D2C5E
:1008D8006E2C882C7A08803A973E0318742C752C55
:1008E800762C412C01300310F30CF20CF10CF00CB7
:1008F800FF3E031D772C0130F4007408FA07031D2E
:10090800862C872C762C9F2C20307A02031C8D2C69
:100918008E2C9A2C412C0130F4000310F00DF10DAF
:10092800F20DF30DF40B912C0130FA027A08031D35
:100938009E2C9F2C8F2C79080319A32CA42CAF2C48
:10094800F009F109F209F309F00A0319F10A031988
:10095800F20A0319F30A080083120313C200413094
:10096800A3002330A200AE30A1001430A00042083A
:10097800BA00BB01BC01BD013D08F3003C08F20010
:100988003B08F1003A08F00001300A128A117C2372
:100998000A128A11730883120313A7007208A600AB
:1009A8007108A5007008A4000A128A111B200A12F7
:1009B8008A11831203132308C1002208C0002108EA
:1009C800BF002008BE004108F3004008F2003F08BD
:1009D800F1003E08F0000A128A1136240A128A1120
:1009E800710883120313C4007008C3004408BB00D5
:1009F8004308BA003B0DBB0CBA0C3B0DBB0CBA0C40
:100A08003A089B0043080239BA00BA0EBA0D1D080D
:100A18003A06DF393A069D0043080139BA00BA0E92
:100A28001D083A06EF393A069D00080083120313A1
:100A3800C2004130A3002330A200AE30A100143020
:100A4800A0004208BA00BB01BC01BD013D08F3008B
:100A58003C08F2003B08F1003A08F00001300A12A5
:100A68008A117C230A128A11730883120313A700C0
:100A78007208A6007108A5007008A4000A128A115D
:100A88001B200A128A11831203132308C1002208AB
:100A9800C0002108BF002008BE004108F30040083C
:100AA800F2003F08F1003E08F0000A128A113624CD
:100AB8000A128A11710883120313C4007008C30054
:100AC8004408BB004308BA003B0DBB0CBA0C3B0DF5
:100AD800BB0CBA0C3A08950043080239BA00BA0EA2
:100AE800BA0D17083A06DF393A0697004308013964
:100AF800BA00BA0E17083A06EF393A069700080006
:100B08008312031385018601870183160313880165
:100B180083120313890183160313850101308600AC
:100B28008030870083120313880183160313890119
:100B38008130810010308B00FF3092000730831223
:100B480003139200803095000C30970080309B0092
:100B58000C309D00CB01CC01323083160313A0006A
:100B6800200883120313CA00323083160313A0002F
:100B7800200883120313C90008000B1EC42DC52DBD
:100B8800F02D8B1CC82DC92DF02D8B104A080A3E5C
:100B9800C5004508CA0065304A02031CD42DD52D6E
:100BA800D62DCA014A080A128A111A250A128A1170
:100BB8008312031349080A3EC5004508C900653079
:100BC8004902031CE82DE92DEA2DC90149080A123A
:100BD8008A11B0240A128A11831203134808FF00ED
:100BE80047088A00460E8300FE0E7E0E0900F800B4
:100BF800F401F5017008F200F3017208F6007308B9
:100C0800F700781C082E092E0F2E7608F407031813
:100C1800F50A7708F50701300310F60DF70DFF3ECA
:100C2800031D102E0310F80C7808031D1C2E1D2E12
:100C3800052E7508F1007408F00008008B130A12DD
:100C48008A1184250A128A118B17292E0A128A11F1
:020C5800102862
:02400E00F23F7F
:00000001FF
