:0600000000F0BCEF1FF050
:103F7600FFFF0001BFEF1FF0FFFFC9EC1FF0FFFFBF
:103F8600E0EC1FF0C2EF1FF001EF00F0FFFF000EA4
:103F9600806E000E816E000E826E000E836E000E25
:103FA600846E000E926E000E936E000E946E010EDD
:103FB600956E000E966E1200FFFFFFFF83820A0EBB
:103FC600026E850E016E9F0EFFFFE82EFDD7012EB5
:103FD600FBD7022EF9D700D083920A0E026E850E09
:103FE600016E9F0EFFFFE82EFDD7012EFBD7022E96
:0A3FF600F9D700D01200FFFFFFFF13
:020000040030CA
:0E000000FF220F0FFF0181FF0FC00FE00F4026
:00000001FF
