:0600000000F0AEEF1FF05E
:103F5A00FFFF0001B1EF1FF0FFFFBBEC1FF0FFFFF7
:103F6A00D2EC1FF0B4EF1FF001EF00F0FFFF000EDC
:103F7A00806E000E816E000E826E000E836E000E41
:103F8A00846E000E926E000E936E000E946E010EF9
:103F9A00956E000E966E1200FFFFFFFF83B0D8EFFA
:103FAA001FF0DBEF1FF0FFFFFAEF1FF0FFFF838226
:103FBA000A0E026E850E016E9F0EFFFFE82EFDD7D8
:103FCA00012EFBD7022EF9D700D083920A0E026E79
:103FDA00850E016E9F0EFFFFE82EFDD7012EFBD73F
:103FEA00022EF9D700D0FCEF1FF0FFFF8392FFFFEC
:063FFA001200FFFFFFFFB3
:020000040030CA
:0E000000FF220F0FFF0181FF0FC00FE00F4026
:00000001FF
