:100000000A128A11C42F00308A000408840A820769
:06001000003434345634C4
:100D7C0000000000080066346634A6343F34883422
:100D8C0013342C3401340834613464008001840A37
:100D9C000406031900340406CC2E0A128A115527B6
:100DAC000A128A110A128A11F9260A128A110A12D7
:100DBC008A11BE260A128A11E22E0A128A11002802
:100DCC007E088A007F0882000A128A11E6260A121F
:100DDC008A118000840A04087D0603190034FF0A76
:100DEC000319FE0AEA2E7408FA007A07FB007B0846
:100DFC00F4007408FA0002300310FA1B0314FA0C06
:100E0C00FF3E031D022F7A08FB007B08F4007408D8
:100E1C00FA0007300310FA1B0314FA0CFF3E031DF3
:100E2C00102F7408FB007B077A04FC007C08F4008C
:100E3C007408FA0007300310FA0DFF3E031D212F32
:100E4C007408FB000310FB1B03147B0C7A04FC00DE
:100E5C007C08F40074080138FA007A08F400741461
:100E6C007408FA007A08F4007408FD39FA007A085C
:100E7C00F400FD30FA007A08F4057408FB007B08D6
:100E8C00F4007408203AFA007A08F4002030FA00D2
:100E9C007A08F4067408FB007B08F400080065303F
:100EAC00FA007A08F500672F0230F0000030F100EC
:100EBC00742F0330F0000030F100742FF001F101B9
:100ECC00742F0030003A03196C2F642F6530613A8F
:100EDC0003195A2F033A03195F2F642F0130FB00BB
:100EEC000030FC007008013EF00071080318013E50
:100EFC00003EF1000130FB070318FC0A0030FC0730
:100F0C007C08803AFF0080307F02031D8F2F0B304E
:100F1C007B02031C922F932F782F9C2F7008013E7D
:100F2C00F00071080318013E003EF1007108803A90
:100F3C00FF0080307F02031DA52F14307002031CAC
:100F4C00A82FA92F942F7008013EF00071080318E8
:100F5C00013E003EF1007108803AFF0080307F02B4
:100F6C00031DBA2F1E307002031CBD2FBE2FA92FDC
:100F7C00A230FA007A08F9007910080083132430A3
:100F8C00FD000630FE00C130FF00203084000A1244
:100F9C008A11EA260A128A110A128A11C5260A1225
:100FAC008A11F0000A128A11C6260A128A11F1005F
:100FBC000A128A11C7260A128A11F2000A128A1121
:100FCC00C8260A128A11F3000A128A11C9260A12BB
:100FDC008A11F4000A128A11CA260A128A11F50023
:100FEC00A401A501F601F701F801F90183010A1228
:040FFC008A11D32E55
:02400E00F23F7F
:1042000000000000000000000000000000000000AE
:10421000000000000000000000000000000000009E
:08422000000000000000000096
:00000001FF
